{
	"contracts/FundMe.sol": {
		"FundMe": {
			"abi": [
				{
					"inputs": [],
					"stateMutability": "nonpayable",
					"type": "constructor"
				},
				{
					"inputs": [
						{
							"internalType": "address",
							"name": "",
							"type": "address"
						}
					],
					"name": "addressToAmountFunded",
					"outputs": [
						{
							"internalType": "uint256",
							"name": "",
							"type": "uint256"
						}
					],
					"stateMutability": "view",
					"type": "function"
				},
				{
					"inputs": [],
					"name": "fund",
					"outputs": [],
					"stateMutability": "payable",
					"type": "function"
				},
				{
					"inputs": [
						{
							"internalType": "uint256",
							"name": "",
							"type": "uint256"
						}
					],
					"name": "funders",
					"outputs": [
						{
							"internalType": "address",
							"name": "",
							"type": "address"
						}
					],
					"stateMutability": "view",
					"type": "function"
				},
				{
					"inputs": [],
					"name": "getVersion",
					"outputs": [
						{
							"internalType": "uint256",
							"name": "",
							"type": "uint256"
						}
					],
					"stateMutability": "view",
					"type": "function"
				},
				{
					"inputs": [],
					"name": "owner",
					"outputs": [
						{
							"internalType": "address",
							"name": "",
							"type": "address"
						}
					],
					"stateMutability": "view",
					"type": "function"
				},
				{
					"inputs": [],
					"name": "withdraw",
					"outputs": [],
					"stateMutability": "payable",
					"type": "function"
				}
			],
			"devdoc": {
				"kind": "dev",
				"methods": {},
				"version": 1
			},
			"evm": {
				"assembly": "    /* \"contracts/FundMe.sol\":212:1586  contract FundMe{... */\n  mstore(0x40, 0x80)\n    /* \"contracts/FundMe.sol\":398:453  constructor () public {... */\n  callvalue\n  dup1\n  iszero\n  tag_1\n  jumpi\n  0x00\n  dup1\n  revert\ntag_1:\n  pop\n    /* \"contracts/FundMe.sol\":436:446  msg.sender */\n  caller\n    /* \"contracts/FundMe.sol\":430:435  owner */\n  0x02\n  0x00\n    /* \"contracts/FundMe.sol\":430:446  owner=msg.sender */\n  0x0100\n  exp\n  dup2\n  sload\n  dup2\n  0xffffffffffffffffffffffffffffffffffffffff\n  mul\n  not\n  and\n  swap1\n  dup4\n  0xffffffffffffffffffffffffffffffffffffffff\n  and\n  mul\n  or\n  swap1\n  sstore\n  pop\n    /* \"contracts/FundMe.sol\":212:1586  contract FundMe{... */\n  dataSize(sub_0)\n  dup1\n  dataOffset(sub_0)\n  0x00\n  codecopy\n  0x00\n  return\nstop\n\nsub_0: assembly {\n        /* \"contracts/FundMe.sol\":212:1586  contract FundMe{... */\n      mstore(0x40, 0x80)\n      jumpi(tag_1, lt(calldatasize, 0x04))\n      shr(0xe0, calldataload(0x00))\n      dup1\n      0x0d8e6e2c\n      eq\n      tag_2\n      jumpi\n      dup1\n      0x3ccfd60b\n      eq\n      tag_3\n      jumpi\n      dup1\n      0x3e47d6f3\n      eq\n      tag_4\n      jumpi\n      dup1\n      0x8da5cb5b\n      eq\n      tag_5\n      jumpi\n      dup1\n      0xb60d4288\n      eq\n      tag_6\n      jumpi\n      dup1\n      0xdc0d3dff\n      eq\n      tag_7\n      jumpi\n    tag_1:\n      0x00\n      dup1\n      revert\n        /* \"contracts/FundMe.sol\":1441:1579  function getVersion() public view returns (uint256){... */\n    tag_2:\n      callvalue\n      dup1\n      iszero\n      tag_8\n      jumpi\n      0x00\n      dup1\n      revert\n    tag_8:\n      pop\n      tag_9\n      tag_10\n      jump\t// in\n    tag_9:\n      mload(0x40)\n      tag_11\n      swap2\n      swap1\n      tag_12\n      jump\t// in\n    tag_11:\n      mload(0x40)\n      dup1\n      swap2\n      sub\n      swap1\n      return\n        /* \"contracts/FundMe.sol\":928:1337  function withdraw() payable onlyOwner public {... */\n    tag_3:\n      tag_13\n      tag_14\n      jump\t// in\n    tag_13:\n      stop\n        /* \"contracts/FundMe.sol\":278:332  mapping(address=>uint256) public addressToAmountFunded */\n    tag_4:\n      callvalue\n      dup1\n      iszero\n      tag_15\n      jumpi\n      0x00\n      dup1\n      revert\n    tag_15:\n      pop\n      tag_16\n      0x04\n      dup1\n      calldatasize\n      sub\n      dup2\n      add\n      swap1\n      tag_17\n      swap2\n      swap1\n      tag_18\n      jump\t// in\n    tag_17:\n      tag_19\n      jump\t// in\n    tag_16:\n      mload(0x40)\n      tag_20\n      swap2\n      swap1\n      tag_12\n      jump\t// in\n    tag_20:\n      mload(0x40)\n      dup1\n      swap2\n      sub\n      swap1\n      return\n        /* \"contracts/FundMe.sol\":368:388  address public owner */\n    tag_5:\n      callvalue\n      dup1\n      iszero\n      tag_21\n      jumpi\n      0x00\n      dup1\n      revert\n    tag_21:\n      pop\n      tag_22\n      tag_23\n      jump\t// in\n    tag_22:\n      mload(0x40)\n      tag_24\n      swap2\n      swap1\n      tag_25\n      jump\t// in\n    tag_24:\n      mload(0x40)\n      dup1\n      swap2\n      sub\n      swap1\n      return\n        /* \"contracts/FundMe.sol\":458:744  function fund() public payable{... */\n    tag_6:\n      tag_26\n      tag_27\n      jump\t// in\n    tag_26:\n      stop\n        /* \"contracts/FundMe.sol\":338:362  address[] public funders */\n    tag_7:\n      callvalue\n      dup1\n      iszero\n      tag_28\n      jumpi\n      0x00\n      dup1\n      revert\n    tag_28:\n      pop\n      tag_29\n      0x04\n      dup1\n      calldatasize\n      sub\n      dup2\n      add\n      swap1\n      tag_30\n      swap2\n      swap1\n      tag_31\n      jump\t// in\n    tag_30:\n      tag_32\n      jump\t// in\n    tag_29:\n      mload(0x40)\n      tag_33\n      swap2\n      swap1\n      tag_25\n      jump\t// in\n    tag_33:\n      mload(0x40)\n      dup1\n      swap2\n      sub\n      swap1\n      return\n        /* \"contracts/FundMe.sol\":1441:1579  function getVersion() public view returns (uint256){... */\n    tag_10:\n        /* \"contracts/FundMe.sol\":1484:1491  uint256 */\n      0x00\n        /* \"contracts/FundMe.sol\":1523:1565  0x5f4eC3Df9cbd43714FE2740f5E3616155c5b8419 */\n      0x5f4ec3df9cbd43714fe2740f5e3616155c5b8419\n        /* \"contracts/FundMe.sol\":1501:1574  AggregatorV3Interface(0x5f4eC3Df9cbd43714FE2740f5E3616155c5b8419).version */\n      0xffffffffffffffffffffffffffffffffffffffff\n      and\n      0x54fd4d50\n        /* \"contracts/FundMe.sol\":1501:1576  AggregatorV3Interface(0x5f4eC3Df9cbd43714FE2740f5E3616155c5b8419).version() */\n      mload(0x40)\n      dup2\n      0xffffffff\n      and\n      0xe0\n      shl\n      dup2\n      mstore\n      0x04\n      add\n      0x20\n      mload(0x40)\n      dup1\n      dup4\n      sub\n      dup2\n      dup7\n      dup1\n      extcodesize\n      iszero\n      dup1\n      iszero\n      tag_35\n      jumpi\n      0x00\n      dup1\n      revert\n    tag_35:\n      pop\n      gas\n      staticcall\n      iszero\n      dup1\n      iszero\n      tag_37\n      jumpi\n      returndatasize\n      0x00\n      dup1\n      returndatacopy\n      revert(0x00, returndatasize)\n    tag_37:\n      pop\n      pop\n      pop\n      pop\n      mload(0x40)\n      returndatasize\n      not(0x1f)\n      0x1f\n      dup3\n      add\n      and\n      dup3\n      add\n      dup1\n      0x40\n      mstore\n      pop\n      dup2\n      add\n      swap1\n      tag_38\n      swap2\n      swap1\n      tag_39\n      jump\t// in\n    tag_38:\n        /* \"contracts/FundMe.sol\":1494:1576  return AggregatorV3Interface(0x5f4eC3Df9cbd43714FE2740f5E3616155c5b8419).version() */\n      swap1\n      pop\n        /* \"contracts/FundMe.sol\":1441:1579  function getVersion() public view returns (uint256){... */\n      swap1\n      jump\t// out\n        /* \"contracts/FundMe.sol\":928:1337  function withdraw() payable onlyOwner public {... */\n    tag_14:\n        /* \"contracts/FundMe.sol\":850:855  owner */\n      0x02\n      0x00\n      swap1\n      sload\n      swap1\n      0x0100\n      exp\n      swap1\n      div\n      0xffffffffffffffffffffffffffffffffffffffff\n      and\n        /* \"contracts/FundMe.sol\":838:855  msg.sender==owner */\n      0xffffffffffffffffffffffffffffffffffffffff\n      and\n        /* \"contracts/FundMe.sol\":838:848  msg.sender */\n      caller\n        /* \"contracts/FundMe.sol\":838:855  msg.sender==owner */\n      0xffffffffffffffffffffffffffffffffffffffff\n      and\n      eq\n        /* \"contracts/FundMe.sol\":830:856  require(msg.sender==owner) */\n      tag_41\n      jumpi\n      0x00\n      dup1\n      revert\n    tag_41:\n        /* \"contracts/FundMe.sol\":1071:1081  msg.sender */\n      caller\n        /* \"contracts/FundMe.sol\":1063:1091  payable(msg.sender).transfer */\n      0xffffffffffffffffffffffffffffffffffffffff\n      and\n        /* \"contracts/FundMe.sol\":1063:1114  payable(msg.sender).transfer(address(this).balance) */\n      0x08fc\n        /* \"contracts/FundMe.sol\":1092:1113  address(this).balance */\n      selfbalance\n        /* \"contracts/FundMe.sol\":1063:1114  payable(msg.sender).transfer(address(this).balance) */\n      swap1\n      dup2\n      iszero\n      mul\n      swap1\n      mload(0x40)\n      0x00\n      mload(0x40)\n      dup1\n      dup4\n      sub\n      dup2\n      dup6\n      dup9\n      dup9\n      call\n      swap4\n      pop\n      pop\n      pop\n      pop\n      iszero\n      dup1\n      iszero\n      tag_44\n      jumpi\n      returndatasize\n      0x00\n      dup1\n      returndatacopy\n      revert(0x00, returndatasize)\n    tag_44:\n      pop\n        /* \"contracts/FundMe.sol\":1129:1148  uint256 funderIndex */\n      0x00\n        /* \"contracts/FundMe.sol\":1124:1297  for (uint256 funderIndex=0;funderIndex<funders.length;funderIndex++){... */\n    tag_45:\n        /* \"contracts/FundMe.sol\":1163:1170  funders */\n      0x01\n        /* \"contracts/FundMe.sol\":1163:1177  funders.length */\n      dup1\n      sload\n      swap1\n      pop\n        /* \"contracts/FundMe.sol\":1151:1162  funderIndex */\n      dup2\n        /* \"contracts/FundMe.sol\":1151:1177  funderIndex<funders.length */\n      lt\n        /* \"contracts/FundMe.sol\":1124:1297  for (uint256 funderIndex=0;funderIndex<funders.length;funderIndex++){... */\n      iszero\n      tag_46\n      jumpi\n        /* \"contracts/FundMe.sol\":1206:1220  address funder */\n      0x00\n        /* \"contracts/FundMe.sol\":1221:1228  funders */\n      0x01\n        /* \"contracts/FundMe.sol\":1229:1240  funderIndex */\n      dup3\n        /* \"contracts/FundMe.sol\":1221:1241  funders[funderIndex] */\n      dup2\n      sload\n      dup2\n      lt\n      tag_48\n      jumpi\n      tag_49\n      tag_50\n      jump\t// in\n    tag_49:\n    tag_48:\n      swap1\n      0x00\n      mstore\n      keccak256(0x00, 0x20)\n      add\n      0x00\n      swap1\n      sload\n      swap1\n      0x0100\n      exp\n      swap1\n      div\n      0xffffffffffffffffffffffffffffffffffffffff\n      and\n        /* \"contracts/FundMe.sol\":1206:1241  address funder=funders[funderIndex] */\n      swap1\n      pop\n        /* \"contracts/FundMe.sol\":1285:1286  0 */\n      0x00\n        /* \"contracts/FundMe.sol\":1255:1276  addressToAmountFunded */\n      dup1\n        /* \"contracts/FundMe.sol\":1255:1284  addressToAmountFunded[funder] */\n      0x00\n        /* \"contracts/FundMe.sol\":1277:1283  funder */\n      dup4\n        /* \"contracts/FundMe.sol\":1255:1284  addressToAmountFunded[funder] */\n      0xffffffffffffffffffffffffffffffffffffffff\n      and\n      0xffffffffffffffffffffffffffffffffffffffff\n      and\n      dup2\n      mstore\n      0x20\n      add\n      swap1\n      dup2\n      mstore\n      0x20\n      add\n      0x00\n      keccak256\n        /* \"contracts/FundMe.sol\":1255:1286  addressToAmountFunded[funder]=0 */\n      dup2\n      swap1\n      sstore\n      pop\n        /* \"contracts/FundMe.sol\":1192:1297  {... */\n      pop\n        /* \"contracts/FundMe.sol\":1178:1191  funderIndex++ */\n      dup1\n      dup1\n      tag_52\n      swap1\n      tag_53\n      jump\t// in\n    tag_52:\n      swap2\n      pop\n      pop\n        /* \"contracts/FundMe.sol\":1124:1297  for (uint256 funderIndex=0;funderIndex<funders.length;funderIndex++){... */\n      jump(tag_45)\n    tag_46:\n      pop\n        /* \"contracts/FundMe.sol\":1328:1329  0 */\n      0x00\n        /* \"contracts/FundMe.sol\":1314:1330  new address[](0) */\n      0xffffffffffffffff\n      dup2\n      gt\n      iszero\n      tag_54\n      jumpi\n      tag_55\n      tag_56\n      jump\t// in\n    tag_55:\n    tag_54:\n      mload(0x40)\n      swap1\n      dup1\n      dup3\n      mstore\n      dup1\n      0x20\n      mul\n      0x20\n      add\n      dup3\n      add\n      0x40\n      mstore\n      dup1\n      iszero\n      tag_57\n      jumpi\n      dup2\n      0x20\n      add\n      0x20\n      dup3\n      mul\n      dup1\n      calldatasize\n      dup4\n      calldatacopy\n      dup1\n      dup3\n      add\n      swap2\n      pop\n      pop\n      swap1\n      pop\n    tag_57:\n      pop\n        /* \"contracts/FundMe.sol\":1306:1313  funders */\n      0x01\n        /* \"contracts/FundMe.sol\":1306:1330  funders=new address[](0) */\n      swap1\n      dup1\n      mload\n      swap1\n      0x20\n      add\n      swap1\n      tag_58\n      swap3\n      swap2\n      swap1\n      tag_59\n      jump\t// in\n    tag_58:\n      pop\n        /* \"contracts/FundMe.sol\":928:1337  function withdraw() payable onlyOwner public {... */\n      jump\t// out\n        /* \"contracts/FundMe.sol\":278:332  mapping(address=>uint256) public addressToAmountFunded */\n    tag_19:\n      mstore(0x20, 0x00)\n      dup1\n      0x00\n      mstore\n      keccak256(0x00, 0x40)\n      0x00\n      swap2\n      pop\n      swap1\n      pop\n      sload\n      dup2\n      jump\t// out\n        /* \"contracts/FundMe.sol\":368:388  address public owner */\n    tag_23:\n      0x02\n      0x00\n      swap1\n      sload\n      swap1\n      0x0100\n      exp\n      swap1\n      div\n      0xffffffffffffffffffffffffffffffffffffffff\n      and\n      dup2\n      jump\t// out\n        /* \"contracts/FundMe.sol\":458:744  function fund() public payable{... */\n    tag_27:\n        /* \"contracts/FundMe.sol\":542:560  uint256 minimumUSD */\n      0x00\n        /* \"contracts/FundMe.sol\":563:574  5 * 10 ** 8 */\n      0x1dcd6500\n        /* \"contracts/FundMe.sol\":542:574  uint256 minimumUSD = 5 * 10 ** 8 */\n      swap1\n      pop\n        /* \"contracts/FundMe.sol\":605:615  minimumUSD */\n      dup1\n        /* \"contracts/FundMe.sol\":592:601  msg.value */\n      callvalue\n        /* \"contracts/FundMe.sol\":592:615  msg.value >= minimumUSD */\n      lt\n      iszero\n        /* \"contracts/FundMe.sol\":584:647  require(msg.value >= minimumUSD, \"You need to spend more ETH!\") */\n      tag_61\n      jumpi\n      mload(0x40)\n      0x08c379a000000000000000000000000000000000000000000000000000000000\n      dup2\n      mstore\n      0x04\n      add\n      tag_62\n      swap1\n      tag_63\n      jump\t// in\n    tag_62:\n      mload(0x40)\n      dup1\n      swap2\n      sub\n      swap1\n      revert\n    tag_61:\n        /* \"contracts/FundMe.sol\":694:703  msg.value */\n      callvalue\n        /* \"contracts/FundMe.sol\":657:678  addressToAmountFunded */\n      0x00\n        /* \"contracts/FundMe.sol\":657:690  addressToAmountFunded[msg.sender] */\n      dup1\n        /* \"contracts/FundMe.sol\":679:689  msg.sender */\n      caller\n        /* \"contracts/FundMe.sol\":657:690  addressToAmountFunded[msg.sender] */\n      0xffffffffffffffffffffffffffffffffffffffff\n      and\n      0xffffffffffffffffffffffffffffffffffffffff\n      and\n      dup2\n      mstore\n      0x20\n      add\n      swap1\n      dup2\n      mstore\n      0x20\n      add\n      0x00\n      keccak256\n      0x00\n        /* \"contracts/FundMe.sol\":657:703  addressToAmountFunded[msg.sender] += msg.value */\n      dup3\n      dup3\n      sload\n      tag_64\n      swap2\n      swap1\n      tag_65\n      jump\t// in\n    tag_64:\n      swap3\n      pop\n      pop\n      dup2\n      swap1\n      sstore\n      pop\n        /* \"contracts/FundMe.sol\":713:720  funders */\n      0x01\n        /* \"contracts/FundMe.sol\":726:736  msg.sender */\n      caller\n        /* \"contracts/FundMe.sol\":713:737  funders.push(msg.sender) */\n      swap1\n      dup1\n      0x01\n      dup2\n      sload\n      add\n      dup1\n      dup3\n      sstore\n      dup1\n      swap2\n      pop\n      pop\n      0x01\n      swap1\n      sub\n      swap1\n      0x00\n      mstore\n      keccak256(0x00, 0x20)\n      add\n      0x00\n      swap1\n      swap2\n      swap1\n      swap2\n      swap1\n      swap2\n      0x0100\n      exp\n      dup2\n      sload\n      dup2\n      0xffffffffffffffffffffffffffffffffffffffff\n      mul\n      not\n      and\n      swap1\n      dup4\n      0xffffffffffffffffffffffffffffffffffffffff\n      and\n      mul\n      or\n      swap1\n      sstore\n      pop\n        /* \"contracts/FundMe.sol\":488:744  {... */\n      pop\n        /* \"contracts/FundMe.sol\":458:744  function fund() public payable{... */\n      jump\t// out\n        /* \"contracts/FundMe.sol\":338:362  address[] public funders */\n    tag_32:\n      0x01\n      dup2\n      dup2\n      sload\n      dup2\n      lt\n      tag_67\n      jumpi\n      0x00\n      dup1\n      revert\n    tag_67:\n      swap1\n      0x00\n      mstore\n      keccak256(0x00, 0x20)\n      add\n      0x00\n      swap2\n      pop\n      sload\n      swap1\n      0x0100\n      exp\n      swap1\n      div\n      0xffffffffffffffffffffffffffffffffffffffff\n      and\n      dup2\n      jump\t// out\n    tag_59:\n      dup3\n      dup1\n      sload\n      dup3\n      dup3\n      sstore\n      swap1\n      0x00\n      mstore\n      keccak256(0x00, 0x20)\n      swap1\n      dup2\n      add\n      swap3\n      dup3\n      iszero\n      tag_69\n      jumpi\n      swap2\n      0x20\n      mul\n      dup3\n      add\n    tag_70:\n      dup3\n      dup2\n      gt\n      iszero\n      tag_71\n      jumpi\n      dup3\n      mload\n      dup3\n      exp(0x0100, 0x00)\n      dup2\n      sload\n      dup2\n      0xffffffffffffffffffffffffffffffffffffffff\n      mul\n      not\n      and\n      swap1\n      dup4\n      0xffffffffffffffffffffffffffffffffffffffff\n      and\n      mul\n      or\n      swap1\n      sstore\n      pop\n      swap2\n      0x20\n      add\n      swap2\n      swap1\n      0x01\n      add\n      swap1\n      jump(tag_70)\n    tag_71:\n    tag_69:\n      pop\n      swap1\n      pop\n      tag_72\n      swap2\n      swap1\n      tag_73\n      jump\t// in\n    tag_72:\n      pop\n      swap1\n      jump\t// out\n    tag_73:\n    tag_74:\n      dup1\n      dup3\n      gt\n      iszero\n      tag_75\n      jumpi\n      0x00\n      dup2\n      0x00\n      swap1\n      sstore\n      pop\n      0x01\n      add\n      jump(tag_74)\n    tag_75:\n      pop\n      swap1\n      jump\t// out\n        /* \"#utility.yul\":7:146   */\n    tag_77:\n        /* \"#utility.yul\":53:58   */\n      0x00\n        /* \"#utility.yul\":91:97   */\n      dup2\n        /* \"#utility.yul\":78:98   */\n      calldataload\n        /* \"#utility.yul\":69:98   */\n      swap1\n      pop\n        /* \"#utility.yul\":107:140   */\n      tag_79\n        /* \"#utility.yul\":134:139   */\n      dup2\n        /* \"#utility.yul\":107:140   */\n      tag_80\n      jump\t// in\n    tag_79:\n        /* \"#utility.yul\":7:146   */\n      swap3\n      swap2\n      pop\n      pop\n      jump\t// out\n        /* \"#utility.yul\":152:291   */\n    tag_81:\n        /* \"#utility.yul\":198:203   */\n      0x00\n        /* \"#utility.yul\":236:242   */\n      dup2\n        /* \"#utility.yul\":223:243   */\n      calldataload\n        /* \"#utility.yul\":214:243   */\n      swap1\n      pop\n        /* \"#utility.yul\":252:285   */\n      tag_83\n        /* \"#utility.yul\":279:284   */\n      dup2\n        /* \"#utility.yul\":252:285   */\n      tag_84\n      jump\t// in\n    tag_83:\n        /* \"#utility.yul\":152:291   */\n      swap3\n      swap2\n      pop\n      pop\n      jump\t// out\n        /* \"#utility.yul\":297:440   */\n    tag_85:\n        /* \"#utility.yul\":354:359   */\n      0x00\n        /* \"#utility.yul\":385:391   */\n      dup2\n        /* \"#utility.yul\":379:392   */\n      mload\n        /* \"#utility.yul\":370:392   */\n      swap1\n      pop\n        /* \"#utility.yul\":401:434   */\n      tag_87\n        /* \"#utility.yul\":428:433   */\n      dup2\n        /* \"#utility.yul\":401:434   */\n      tag_84\n      jump\t// in\n    tag_87:\n        /* \"#utility.yul\":297:440   */\n      swap3\n      swap2\n      pop\n      pop\n      jump\t// out\n        /* \"#utility.yul\":446:775   */\n    tag_18:\n        /* \"#utility.yul\":505:511   */\n      0x00\n        /* \"#utility.yul\":554:556   */\n      0x20\n        /* \"#utility.yul\":542:551   */\n      dup3\n        /* \"#utility.yul\":533:540   */\n      dup5\n        /* \"#utility.yul\":529:552   */\n      sub\n        /* \"#utility.yul\":525:557   */\n      slt\n        /* \"#utility.yul\":522:641   */\n      iszero\n      tag_89\n      jumpi\n        /* \"#utility.yul\":560:639   */\n      tag_90\n      tag_91\n      jump\t// in\n    tag_90:\n        /* \"#utility.yul\":522:641   */\n    tag_89:\n        /* \"#utility.yul\":680:681   */\n      0x00\n        /* \"#utility.yul\":705:758   */\n      tag_92\n        /* \"#utility.yul\":750:757   */\n      dup5\n        /* \"#utility.yul\":741:747   */\n      dup3\n        /* \"#utility.yul\":730:739   */\n      dup6\n        /* \"#utility.yul\":726:748   */\n      add\n        /* \"#utility.yul\":705:758   */\n      tag_77\n      jump\t// in\n    tag_92:\n        /* \"#utility.yul\":695:758   */\n      swap2\n      pop\n        /* \"#utility.yul\":651:768   */\n      pop\n        /* \"#utility.yul\":446:775   */\n      swap3\n      swap2\n      pop\n      pop\n      jump\t// out\n        /* \"#utility.yul\":781:1110   */\n    tag_31:\n        /* \"#utility.yul\":840:846   */\n      0x00\n        /* \"#utility.yul\":889:891   */\n      0x20\n        /* \"#utility.yul\":877:886   */\n      dup3\n        /* \"#utility.yul\":868:875   */\n      dup5\n        /* \"#utility.yul\":864:887   */\n      sub\n        /* \"#utility.yul\":860:892   */\n      slt\n        /* \"#utility.yul\":857:976   */\n      iszero\n      tag_94\n      jumpi\n        /* \"#utility.yul\":895:974   */\n      tag_95\n      tag_91\n      jump\t// in\n    tag_95:\n        /* \"#utility.yul\":857:976   */\n    tag_94:\n        /* \"#utility.yul\":1015:1016   */\n      0x00\n        /* \"#utility.yul\":1040:1093   */\n      tag_96\n        /* \"#utility.yul\":1085:1092   */\n      dup5\n        /* \"#utility.yul\":1076:1082   */\n      dup3\n        /* \"#utility.yul\":1065:1074   */\n      dup6\n        /* \"#utility.yul\":1061:1083   */\n      add\n        /* \"#utility.yul\":1040:1093   */\n      tag_81\n      jump\t// in\n    tag_96:\n        /* \"#utility.yul\":1030:1093   */\n      swap2\n      pop\n        /* \"#utility.yul\":986:1103   */\n      pop\n        /* \"#utility.yul\":781:1110   */\n      swap3\n      swap2\n      pop\n      pop\n      jump\t// out\n        /* \"#utility.yul\":1116:1467   */\n    tag_39:\n        /* \"#utility.yul\":1186:1192   */\n      0x00\n        /* \"#utility.yul\":1235:1237   */\n      0x20\n        /* \"#utility.yul\":1223:1232   */\n      dup3\n        /* \"#utility.yul\":1214:1221   */\n      dup5\n        /* \"#utility.yul\":1210:1233   */\n      sub\n        /* \"#utility.yul\":1206:1238   */\n      slt\n        /* \"#utility.yul\":1203:1322   */\n      iszero\n      tag_98\n      jumpi\n        /* \"#utility.yul\":1241:1320   */\n      tag_99\n      tag_91\n      jump\t// in\n    tag_99:\n        /* \"#utility.yul\":1203:1322   */\n    tag_98:\n        /* \"#utility.yul\":1361:1362   */\n      0x00\n        /* \"#utility.yul\":1386:1450   */\n      tag_100\n        /* \"#utility.yul\":1442:1449   */\n      dup5\n        /* \"#utility.yul\":1433:1439   */\n      dup3\n        /* \"#utility.yul\":1422:1431   */\n      dup6\n        /* \"#utility.yul\":1418:1440   */\n      add\n        /* \"#utility.yul\":1386:1450   */\n      tag_85\n      jump\t// in\n    tag_100:\n        /* \"#utility.yul\":1376:1450   */\n      swap2\n      pop\n        /* \"#utility.yul\":1332:1460   */\n      pop\n        /* \"#utility.yul\":1116:1467   */\n      swap3\n      swap2\n      pop\n      pop\n      jump\t// out\n        /* \"#utility.yul\":1473:1591   */\n    tag_101:\n        /* \"#utility.yul\":1560:1584   */\n      tag_103\n        /* \"#utility.yul\":1578:1583   */\n      dup2\n        /* \"#utility.yul\":1560:1584   */\n      tag_104\n      jump\t// in\n    tag_103:\n        /* \"#utility.yul\":1555:1558   */\n      dup3\n        /* \"#utility.yul\":1548:1585   */\n      mstore\n        /* \"#utility.yul\":1473:1591   */\n      pop\n      pop\n      jump\t// out\n        /* \"#utility.yul\":1597:1963   */\n    tag_105:\n        /* \"#utility.yul\":1739:1742   */\n      0x00\n        /* \"#utility.yul\":1760:1827   */\n      tag_107\n        /* \"#utility.yul\":1824:1826   */\n      0x1b\n        /* \"#utility.yul\":1819:1822   */\n      dup4\n        /* \"#utility.yul\":1760:1827   */\n      tag_108\n      jump\t// in\n    tag_107:\n        /* \"#utility.yul\":1753:1827   */\n      swap2\n      pop\n        /* \"#utility.yul\":1836:1929   */\n      tag_109\n        /* \"#utility.yul\":1925:1928   */\n      dup3\n        /* \"#utility.yul\":1836:1929   */\n      tag_110\n      jump\t// in\n    tag_109:\n        /* \"#utility.yul\":1954:1956   */\n      0x20\n        /* \"#utility.yul\":1949:1952   */\n      dup3\n        /* \"#utility.yul\":1945:1957   */\n      add\n        /* \"#utility.yul\":1938:1957   */\n      swap1\n      pop\n        /* \"#utility.yul\":1597:1963   */\n      swap2\n      swap1\n      pop\n      jump\t// out\n        /* \"#utility.yul\":1969:2087   */\n    tag_111:\n        /* \"#utility.yul\":2056:2080   */\n      tag_113\n        /* \"#utility.yul\":2074:2079   */\n      dup2\n        /* \"#utility.yul\":2056:2080   */\n      tag_114\n      jump\t// in\n    tag_113:\n        /* \"#utility.yul\":2051:2054   */\n      dup3\n        /* \"#utility.yul\":2044:2081   */\n      mstore\n        /* \"#utility.yul\":1969:2087   */\n      pop\n      pop\n      jump\t// out\n        /* \"#utility.yul\":2093:2315   */\n    tag_25:\n        /* \"#utility.yul\":2186:2190   */\n      0x00\n        /* \"#utility.yul\":2224:2226   */\n      0x20\n        /* \"#utility.yul\":2213:2222   */\n      dup3\n        /* \"#utility.yul\":2209:2227   */\n      add\n        /* \"#utility.yul\":2201:2227   */\n      swap1\n      pop\n        /* \"#utility.yul\":2237:2308   */\n      tag_116\n        /* \"#utility.yul\":2305:2306   */\n      0x00\n        /* \"#utility.yul\":2294:2303   */\n      dup4\n        /* \"#utility.yul\":2290:2307   */\n      add\n        /* \"#utility.yul\":2281:2287   */\n      dup5\n        /* \"#utility.yul\":2237:2308   */\n      tag_101\n      jump\t// in\n    tag_116:\n        /* \"#utility.yul\":2093:2315   */\n      swap3\n      swap2\n      pop\n      pop\n      jump\t// out\n        /* \"#utility.yul\":2321:2740   */\n    tag_63:\n        /* \"#utility.yul\":2487:2491   */\n      0x00\n        /* \"#utility.yul\":2525:2527   */\n      0x20\n        /* \"#utility.yul\":2514:2523   */\n      dup3\n        /* \"#utility.yul\":2510:2528   */\n      add\n        /* \"#utility.yul\":2502:2528   */\n      swap1\n      pop\n        /* \"#utility.yul\":2574:2583   */\n      dup2\n        /* \"#utility.yul\":2568:2572   */\n      dup2\n        /* \"#utility.yul\":2564:2584   */\n      sub\n        /* \"#utility.yul\":2560:2561   */\n      0x00\n        /* \"#utility.yul\":2549:2558   */\n      dup4\n        /* \"#utility.yul\":2545:2562   */\n      add\n        /* \"#utility.yul\":2538:2585   */\n      mstore\n        /* \"#utility.yul\":2602:2733   */\n      tag_118\n        /* \"#utility.yul\":2728:2732   */\n      dup2\n        /* \"#utility.yul\":2602:2733   */\n      tag_105\n      jump\t// in\n    tag_118:\n        /* \"#utility.yul\":2594:2733   */\n      swap1\n      pop\n        /* \"#utility.yul\":2321:2740   */\n      swap2\n      swap1\n      pop\n      jump\t// out\n        /* \"#utility.yul\":2746:2968   */\n    tag_12:\n        /* \"#utility.yul\":2839:2843   */\n      0x00\n        /* \"#utility.yul\":2877:2879   */\n      0x20\n        /* \"#utility.yul\":2866:2875   */\n      dup3\n        /* \"#utility.yul\":2862:2880   */\n      add\n        /* \"#utility.yul\":2854:2880   */\n      swap1\n      pop\n        /* \"#utility.yul\":2890:2961   */\n      tag_120\n        /* \"#utility.yul\":2958:2959   */\n      0x00\n        /* \"#utility.yul\":2947:2956   */\n      dup4\n        /* \"#utility.yul\":2943:2960   */\n      add\n        /* \"#utility.yul\":2934:2940   */\n      dup5\n        /* \"#utility.yul\":2890:2961   */\n      tag_111\n      jump\t// in\n    tag_120:\n        /* \"#utility.yul\":2746:2968   */\n      swap3\n      swap2\n      pop\n      pop\n      jump\t// out\n        /* \"#utility.yul\":3055:3224   */\n    tag_108:\n        /* \"#utility.yul\":3139:3150   */\n      0x00\n        /* \"#utility.yul\":3173:3179   */\n      dup3\n        /* \"#utility.yul\":3168:3171   */\n      dup3\n        /* \"#utility.yul\":3161:3180   */\n      mstore\n        /* \"#utility.yul\":3213:3217   */\n      0x20\n        /* \"#utility.yul\":3208:3211   */\n      dup3\n        /* \"#utility.yul\":3204:3218   */\n      add\n        /* \"#utility.yul\":3189:3218   */\n      swap1\n      pop\n        /* \"#utility.yul\":3055:3224   */\n      swap3\n      swap2\n      pop\n      pop\n      jump\t// out\n        /* \"#utility.yul\":3230:3535   */\n    tag_65:\n        /* \"#utility.yul\":3270:3273   */\n      0x00\n        /* \"#utility.yul\":3289:3309   */\n      tag_125\n        /* \"#utility.yul\":3307:3308   */\n      dup3\n        /* \"#utility.yul\":3289:3309   */\n      tag_114\n      jump\t// in\n    tag_125:\n        /* \"#utility.yul\":3284:3309   */\n      swap2\n      pop\n        /* \"#utility.yul\":3323:3343   */\n      tag_126\n        /* \"#utility.yul\":3341:3342   */\n      dup4\n        /* \"#utility.yul\":3323:3343   */\n      tag_114\n      jump\t// in\n    tag_126:\n        /* \"#utility.yul\":3318:3343   */\n      swap3\n      pop\n        /* \"#utility.yul\":3477:3478   */\n      dup3\n        /* \"#utility.yul\":3409:3475   */\n      0xffffffffffffffffffffffffffffffffffffffffffffffffffffffffffffffff\n        /* \"#utility.yul\":3405:3479   */\n      sub\n        /* \"#utility.yul\":3402:3403   */\n      dup3\n        /* \"#utility.yul\":3399:3480   */\n      gt\n        /* \"#utility.yul\":3396:3503   */\n      iszero\n      tag_127\n      jumpi\n        /* \"#utility.yul\":3483:3501   */\n      tag_128\n      tag_129\n      jump\t// in\n    tag_128:\n        /* \"#utility.yul\":3396:3503   */\n    tag_127:\n        /* \"#utility.yul\":3527:3528   */\n      dup3\n        /* \"#utility.yul\":3524:3525   */\n      dup3\n        /* \"#utility.yul\":3520:3529   */\n      add\n        /* \"#utility.yul\":3513:3529   */\n      swap1\n      pop\n        /* \"#utility.yul\":3230:3535   */\n      swap3\n      swap2\n      pop\n      pop\n      jump\t// out\n        /* \"#utility.yul\":3541:3637   */\n    tag_104:\n        /* \"#utility.yul\":3578:3585   */\n      0x00\n        /* \"#utility.yul\":3607:3631   */\n      tag_131\n        /* \"#utility.yul\":3625:3630   */\n      dup3\n        /* \"#utility.yul\":3607:3631   */\n      tag_132\n      jump\t// in\n    tag_131:\n        /* \"#utility.yul\":3596:3631   */\n      swap1\n      pop\n        /* \"#utility.yul\":3541:3637   */\n      swap2\n      swap1\n      pop\n      jump\t// out\n        /* \"#utility.yul\":3643:3769   */\n    tag_132:\n        /* \"#utility.yul\":3680:3687   */\n      0x00\n        /* \"#utility.yul\":3720:3762   */\n      0xffffffffffffffffffffffffffffffffffffffff\n        /* \"#utility.yul\":3713:3718   */\n      dup3\n        /* \"#utility.yul\":3709:3763   */\n      and\n        /* \"#utility.yul\":3698:3763   */\n      swap1\n      pop\n        /* \"#utility.yul\":3643:3769   */\n      swap2\n      swap1\n      pop\n      jump\t// out\n        /* \"#utility.yul\":3775:3852   */\n    tag_114:\n        /* \"#utility.yul\":3812:3819   */\n      0x00\n        /* \"#utility.yul\":3841:3846   */\n      dup2\n        /* \"#utility.yul\":3830:3846   */\n      swap1\n      pop\n        /* \"#utility.yul\":3775:3852   */\n      swap2\n      swap1\n      pop\n      jump\t// out\n        /* \"#utility.yul\":3858:4091   */\n    tag_53:\n        /* \"#utility.yul\":3897:3900   */\n      0x00\n        /* \"#utility.yul\":3920:3944   */\n      tag_136\n        /* \"#utility.yul\":3938:3943   */\n      dup3\n        /* \"#utility.yul\":3920:3944   */\n      tag_114\n      jump\t// in\n    tag_136:\n        /* \"#utility.yul\":3911:3944   */\n      swap2\n      pop\n        /* \"#utility.yul\":3966:4032   */\n      0xffffffffffffffffffffffffffffffffffffffffffffffffffffffffffffffff\n        /* \"#utility.yul\":3959:3964   */\n      dup3\n        /* \"#utility.yul\":3956:4033   */\n      eq\n        /* \"#utility.yul\":3953:4056   */\n      iszero\n      tag_137\n      jumpi\n        /* \"#utility.yul\":4036:4054   */\n      tag_138\n      tag_129\n      jump\t// in\n    tag_138:\n        /* \"#utility.yul\":3953:4056   */\n    tag_137:\n        /* \"#utility.yul\":4083:4084   */\n      0x01\n        /* \"#utility.yul\":4076:4081   */\n      dup3\n        /* \"#utility.yul\":4072:4085   */\n      add\n        /* \"#utility.yul\":4065:4085   */\n      swap1\n      pop\n        /* \"#utility.yul\":3858:4091   */\n      swap2\n      swap1\n      pop\n      jump\t// out\n        /* \"#utility.yul\":4097:4277   */\n    tag_129:\n        /* \"#utility.yul\":4145:4222   */\n      0x4e487b7100000000000000000000000000000000000000000000000000000000\n        /* \"#utility.yul\":4142:4143   */\n      0x00\n        /* \"#utility.yul\":4135:4223   */\n      mstore\n        /* \"#utility.yul\":4242:4246   */\n      0x11\n        /* \"#utility.yul\":4239:4240   */\n      0x04\n        /* \"#utility.yul\":4232:4247   */\n      mstore\n        /* \"#utility.yul\":4266:4270   */\n      0x24\n        /* \"#utility.yul\":4263:4264   */\n      0x00\n        /* \"#utility.yul\":4256:4271   */\n      revert\n        /* \"#utility.yul\":4283:4463   */\n    tag_50:\n        /* \"#utility.yul\":4331:4408   */\n      0x4e487b7100000000000000000000000000000000000000000000000000000000\n        /* \"#utility.yul\":4328:4329   */\n      0x00\n        /* \"#utility.yul\":4321:4409   */\n      mstore\n        /* \"#utility.yul\":4428:4432   */\n      0x32\n        /* \"#utility.yul\":4425:4426   */\n      0x04\n        /* \"#utility.yul\":4418:4433   */\n      mstore\n        /* \"#utility.yul\":4452:4456   */\n      0x24\n        /* \"#utility.yul\":4449:4450   */\n      0x00\n        /* \"#utility.yul\":4442:4457   */\n      revert\n        /* \"#utility.yul\":4469:4649   */\n    tag_56:\n        /* \"#utility.yul\":4517:4594   */\n      0x4e487b7100000000000000000000000000000000000000000000000000000000\n        /* \"#utility.yul\":4514:4515   */\n      0x00\n        /* \"#utility.yul\":4507:4595   */\n      mstore\n        /* \"#utility.yul\":4614:4618   */\n      0x41\n        /* \"#utility.yul\":4611:4612   */\n      0x04\n        /* \"#utility.yul\":4604:4619   */\n      mstore\n        /* \"#utility.yul\":4638:4642   */\n      0x24\n        /* \"#utility.yul\":4635:4636   */\n      0x00\n        /* \"#utility.yul\":4628:4643   */\n      revert\n        /* \"#utility.yul\":4778:4895   */\n    tag_91:\n        /* \"#utility.yul\":4887:4888   */\n      0x00\n        /* \"#utility.yul\":4884:4885   */\n      dup1\n        /* \"#utility.yul\":4877:4889   */\n      revert\n        /* \"#utility.yul\":4901:5078   */\n    tag_110:\n        /* \"#utility.yul\":5041:5070   */\n      0x596f75206e65656420746f207370656e64206d6f726520455448210000000000\n        /* \"#utility.yul\":5037:5038   */\n      0x00\n        /* \"#utility.yul\":5029:5035   */\n      dup3\n        /* \"#utility.yul\":5025:5039   */\n      add\n        /* \"#utility.yul\":5018:5071   */\n      mstore\n        /* \"#utility.yul\":4901:5078   */\n      pop\n      jump\t// out\n        /* \"#utility.yul\":5084:5206   */\n    tag_80:\n        /* \"#utility.yul\":5157:5181   */\n      tag_147\n        /* \"#utility.yul\":5175:5180   */\n      dup2\n        /* \"#utility.yul\":5157:5181   */\n      tag_104\n      jump\t// in\n    tag_147:\n        /* \"#utility.yul\":5150:5155   */\n      dup2\n        /* \"#utility.yul\":5147:5182   */\n      eq\n        /* \"#utility.yul\":5137:5200   */\n      tag_148\n      jumpi\n        /* \"#utility.yul\":5196:5197   */\n      0x00\n        /* \"#utility.yul\":5193:5194   */\n      dup1\n        /* \"#utility.yul\":5186:5198   */\n      revert\n        /* \"#utility.yul\":5137:5200   */\n    tag_148:\n        /* \"#utility.yul\":5084:5206   */\n      pop\n      jump\t// out\n        /* \"#utility.yul\":5212:5334   */\n    tag_84:\n        /* \"#utility.yul\":5285:5309   */\n      tag_150\n        /* \"#utility.yul\":5303:5308   */\n      dup2\n        /* \"#utility.yul\":5285:5309   */\n      tag_114\n      jump\t// in\n    tag_150:\n        /* \"#utility.yul\":5278:5283   */\n      dup2\n        /* \"#utility.yul\":5275:5310   */\n      eq\n        /* \"#utility.yul\":5265:5328   */\n      tag_151\n      jumpi\n        /* \"#utility.yul\":5324:5325   */\n      0x00\n        /* \"#utility.yul\":5321:5322   */\n      dup1\n        /* \"#utility.yul\":5314:5326   */\n      revert\n        /* \"#utility.yul\":5265:5328   */\n    tag_151:\n        /* \"#utility.yul\":5212:5334   */\n      pop\n      jump\t// out\n\n    auxdata: 0xa2646970667358221220261cf7de0b4f453f399e3a09880abe6cc34ae6f466953504da79c9a40767bf2964736f6c63430008070033\n}\n",
				"bytecode": {
					"linkReferences": {},
					"object": "608060405234801561001057600080fd5b5033600260006101000a81548173ffffffffffffffffffffffffffffffffffffffff021916908373ffffffffffffffffffffffffffffffffffffffff160217905550610919806100616000396000f3fe6080604052600436106100555760003560e01c80630d8e6e2c1461005a5780633ccfd60b146100855780633e47d6f31461008f5780638da5cb5b146100cc578063b60d4288146100f7578063dc0d3dff14610101575b600080fd5b34801561006657600080fd5b5061006f61013e565b60405161007c91906106f3565b60405180910390f35b61008d6101d7565b005b34801561009b57600080fd5b506100b660048036038101906100b191906105f0565b610386565b6040516100c391906106f3565b60405180910390f35b3480156100d857600080fd5b506100e161039e565b6040516100ee91906106b8565b60405180910390f35b6100ff6103c4565b005b34801561010d57600080fd5b506101286004803603810190610123919061061d565b6104cb565b60405161013591906106b8565b60405180910390f35b6000735f4ec3df9cbd43714fe2740f5e3616155c5b841973ffffffffffffffffffffffffffffffffffffffff166354fd4d506040518163ffffffff1660e01b815260040160206040518083038186803b15801561019a57600080fd5b505afa1580156101ae573d6000803e3d6000fd5b505050506040513d601f19601f820116820180604052508101906101d2919061064a565b905090565b600260009054906101000a900473ffffffffffffffffffffffffffffffffffffffff1673ffffffffffffffffffffffffffffffffffffffff163373ffffffffffffffffffffffffffffffffffffffff161461023157600080fd5b3373ffffffffffffffffffffffffffffffffffffffff166108fc479081150290604051600060405180830381858888f19350505050158015610277573d6000803e3d6000fd5b5060005b6001805490508110156103235760006001828154811061029e5761029d610829565b5b9060005260206000200160009054906101000a900473ffffffffffffffffffffffffffffffffffffffff16905060008060008373ffffffffffffffffffffffffffffffffffffffff1673ffffffffffffffffffffffffffffffffffffffff1681526020019081526020016000208190555050808061031b906107b1565b91505061027b565b50600067ffffffffffffffff81111561033f5761033e610858565b5b60405190808252806020026020018201604052801561036d5781602001602082028036833780820191505090505b506001908051906020019061038392919061050a565b50565b60006020528060005260406000206000915090505481565b600260009054906101000a900473ffffffffffffffffffffffffffffffffffffffff1681565b6000631dcd6500905080341015610410576040517f08c379a0000000000000000000000000000000000000000000000000000000008152600401610407906106d3565b60405180910390fd5b346000803373ffffffffffffffffffffffffffffffffffffffff1673ffffffffffffffffffffffffffffffffffffffff168152602001908152602001600020600082825461045e919061071f565b925050819055506001339080600181540180825580915050600190039060005260206000200160009091909190916101000a81548173ffffffffffffffffffffffffffffffffffffffff021916908373ffffffffffffffffffffffffffffffffffffffff16021790555050565b600181815481106104db57600080fd5b906000526020600020016000915054906101000a900473ffffffffffffffffffffffffffffffffffffffff1681565b828054828255906000526020600020908101928215610583579160200282015b828111156105825782518260006101000a81548173ffffffffffffffffffffffffffffffffffffffff021916908373ffffffffffffffffffffffffffffffffffffffff1602179055509160200191906001019061052a565b5b5090506105909190610594565b5090565b5b808211156105ad576000816000905550600101610595565b5090565b6000813590506105c0816108b5565b92915050565b6000813590506105d5816108cc565b92915050565b6000815190506105ea816108cc565b92915050565b60006020828403121561060657610605610887565b5b6000610614848285016105b1565b91505092915050565b60006020828403121561063357610632610887565b5b6000610641848285016105c6565b91505092915050565b6000602082840312156106605761065f610887565b5b600061066e848285016105db565b91505092915050565b61068081610775565b82525050565b6000610693601b8361070e565b915061069e8261088c565b602082019050919050565b6106b2816107a7565b82525050565b60006020820190506106cd6000830184610677565b92915050565b600060208201905081810360008301526106ec81610686565b9050919050565b600060208201905061070860008301846106a9565b92915050565b600082825260208201905092915050565b600061072a826107a7565b9150610735836107a7565b9250827fffffffffffffffffffffffffffffffffffffffffffffffffffffffffffffffff0382111561076a576107696107fa565b5b828201905092915050565b600061078082610787565b9050919050565b600073ffffffffffffffffffffffffffffffffffffffff82169050919050565b6000819050919050565b60006107bc826107a7565b91507fffffffffffffffffffffffffffffffffffffffffffffffffffffffffffffffff8214156107ef576107ee6107fa565b5b600182019050919050565b7f4e487b7100000000000000000000000000000000000000000000000000000000600052601160045260246000fd5b7f4e487b7100000000000000000000000000000000000000000000000000000000600052603260045260246000fd5b7f4e487b7100000000000000000000000000000000000000000000000000000000600052604160045260246000fd5b600080fd5b7f596f75206e65656420746f207370656e64206d6f726520455448210000000000600082015250565b6108be81610775565b81146108c957600080fd5b50565b6108d5816107a7565b81146108e057600080fd5b5056fea2646970667358221220261cf7de0b4f453f399e3a09880abe6cc34ae6f466953504da79c9a40767bf2964736f6c63430008070033",
					"opcodes": "PUSH1 0x80 PUSH1 0x40 MSTORE CALLVALUE DUP1 ISZERO PUSH2 0x10 JUMPI PUSH1 0x0 DUP1 REVERT JUMPDEST POP CALLER PUSH1 0x2 PUSH1 0x0 PUSH2 0x100 EXP DUP2 SLOAD DUP2 PUSH20 0xFFFFFFFFFFFFFFFFFFFFFFFFFFFFFFFFFFFFFFFF MUL NOT AND SWAP1 DUP4 PUSH20 0xFFFFFFFFFFFFFFFFFFFFFFFFFFFFFFFFFFFFFFFF AND MUL OR SWAP1 SSTORE POP PUSH2 0x919 DUP1 PUSH2 0x61 PUSH1 0x0 CODECOPY PUSH1 0x0 RETURN INVALID PUSH1 0x80 PUSH1 0x40 MSTORE PUSH1 0x4 CALLDATASIZE LT PUSH2 0x55 JUMPI PUSH1 0x0 CALLDATALOAD PUSH1 0xE0 SHR DUP1 PUSH4 0xD8E6E2C EQ PUSH2 0x5A JUMPI DUP1 PUSH4 0x3CCFD60B EQ PUSH2 0x85 JUMPI DUP1 PUSH4 0x3E47D6F3 EQ PUSH2 0x8F JUMPI DUP1 PUSH4 0x8DA5CB5B EQ PUSH2 0xCC JUMPI DUP1 PUSH4 0xB60D4288 EQ PUSH2 0xF7 JUMPI DUP1 PUSH4 0xDC0D3DFF EQ PUSH2 0x101 JUMPI JUMPDEST PUSH1 0x0 DUP1 REVERT JUMPDEST CALLVALUE DUP1 ISZERO PUSH2 0x66 JUMPI PUSH1 0x0 DUP1 REVERT JUMPDEST POP PUSH2 0x6F PUSH2 0x13E JUMP JUMPDEST PUSH1 0x40 MLOAD PUSH2 0x7C SWAP2 SWAP1 PUSH2 0x6F3 JUMP JUMPDEST PUSH1 0x40 MLOAD DUP1 SWAP2 SUB SWAP1 RETURN JUMPDEST PUSH2 0x8D PUSH2 0x1D7 JUMP JUMPDEST STOP JUMPDEST CALLVALUE DUP1 ISZERO PUSH2 0x9B JUMPI PUSH1 0x0 DUP1 REVERT JUMPDEST POP PUSH2 0xB6 PUSH1 0x4 DUP1 CALLDATASIZE SUB DUP2 ADD SWAP1 PUSH2 0xB1 SWAP2 SWAP1 PUSH2 0x5F0 JUMP JUMPDEST PUSH2 0x386 JUMP JUMPDEST PUSH1 0x40 MLOAD PUSH2 0xC3 SWAP2 SWAP1 PUSH2 0x6F3 JUMP JUMPDEST PUSH1 0x40 MLOAD DUP1 SWAP2 SUB SWAP1 RETURN JUMPDEST CALLVALUE DUP1 ISZERO PUSH2 0xD8 JUMPI PUSH1 0x0 DUP1 REVERT JUMPDEST POP PUSH2 0xE1 PUSH2 0x39E JUMP JUMPDEST PUSH1 0x40 MLOAD PUSH2 0xEE SWAP2 SWAP1 PUSH2 0x6B8 JUMP JUMPDEST PUSH1 0x40 MLOAD DUP1 SWAP2 SUB SWAP1 RETURN JUMPDEST PUSH2 0xFF PUSH2 0x3C4 JUMP JUMPDEST STOP JUMPDEST CALLVALUE DUP1 ISZERO PUSH2 0x10D JUMPI PUSH1 0x0 DUP1 REVERT JUMPDEST POP PUSH2 0x128 PUSH1 0x4 DUP1 CALLDATASIZE SUB DUP2 ADD SWAP1 PUSH2 0x123 SWAP2 SWAP1 PUSH2 0x61D JUMP JUMPDEST PUSH2 0x4CB JUMP JUMPDEST PUSH1 0x40 MLOAD PUSH2 0x135 SWAP2 SWAP1 PUSH2 0x6B8 JUMP JUMPDEST PUSH1 0x40 MLOAD DUP1 SWAP2 SUB SWAP1 RETURN JUMPDEST PUSH1 0x0 PUSH20 0x5F4EC3DF9CBD43714FE2740F5E3616155C5B8419 PUSH20 0xFFFFFFFFFFFFFFFFFFFFFFFFFFFFFFFFFFFFFFFF AND PUSH4 0x54FD4D50 PUSH1 0x40 MLOAD DUP2 PUSH4 0xFFFFFFFF AND PUSH1 0xE0 SHL DUP2 MSTORE PUSH1 0x4 ADD PUSH1 0x20 PUSH1 0x40 MLOAD DUP1 DUP4 SUB DUP2 DUP7 DUP1 EXTCODESIZE ISZERO DUP1 ISZERO PUSH2 0x19A JUMPI PUSH1 0x0 DUP1 REVERT JUMPDEST POP GAS STATICCALL ISZERO DUP1 ISZERO PUSH2 0x1AE JUMPI RETURNDATASIZE PUSH1 0x0 DUP1 RETURNDATACOPY RETURNDATASIZE PUSH1 0x0 REVERT JUMPDEST POP POP POP POP PUSH1 0x40 MLOAD RETURNDATASIZE PUSH1 0x1F NOT PUSH1 0x1F DUP3 ADD AND DUP3 ADD DUP1 PUSH1 0x40 MSTORE POP DUP2 ADD SWAP1 PUSH2 0x1D2 SWAP2 SWAP1 PUSH2 0x64A JUMP JUMPDEST SWAP1 POP SWAP1 JUMP JUMPDEST PUSH1 0x2 PUSH1 0x0 SWAP1 SLOAD SWAP1 PUSH2 0x100 EXP SWAP1 DIV PUSH20 0xFFFFFFFFFFFFFFFFFFFFFFFFFFFFFFFFFFFFFFFF AND PUSH20 0xFFFFFFFFFFFFFFFFFFFFFFFFFFFFFFFFFFFFFFFF AND CALLER PUSH20 0xFFFFFFFFFFFFFFFFFFFFFFFFFFFFFFFFFFFFFFFF AND EQ PUSH2 0x231 JUMPI PUSH1 0x0 DUP1 REVERT JUMPDEST CALLER PUSH20 0xFFFFFFFFFFFFFFFFFFFFFFFFFFFFFFFFFFFFFFFF AND PUSH2 0x8FC SELFBALANCE SWAP1 DUP2 ISZERO MUL SWAP1 PUSH1 0x40 MLOAD PUSH1 0x0 PUSH1 0x40 MLOAD DUP1 DUP4 SUB DUP2 DUP6 DUP9 DUP9 CALL SWAP4 POP POP POP POP ISZERO DUP1 ISZERO PUSH2 0x277 JUMPI RETURNDATASIZE PUSH1 0x0 DUP1 RETURNDATACOPY RETURNDATASIZE PUSH1 0x0 REVERT JUMPDEST POP PUSH1 0x0 JUMPDEST PUSH1 0x1 DUP1 SLOAD SWAP1 POP DUP2 LT ISZERO PUSH2 0x323 JUMPI PUSH1 0x0 PUSH1 0x1 DUP3 DUP2 SLOAD DUP2 LT PUSH2 0x29E JUMPI PUSH2 0x29D PUSH2 0x829 JUMP JUMPDEST JUMPDEST SWAP1 PUSH1 0x0 MSTORE PUSH1 0x20 PUSH1 0x0 KECCAK256 ADD PUSH1 0x0 SWAP1 SLOAD SWAP1 PUSH2 0x100 EXP SWAP1 DIV PUSH20 0xFFFFFFFFFFFFFFFFFFFFFFFFFFFFFFFFFFFFFFFF AND SWAP1 POP PUSH1 0x0 DUP1 PUSH1 0x0 DUP4 PUSH20 0xFFFFFFFFFFFFFFFFFFFFFFFFFFFFFFFFFFFFFFFF AND PUSH20 0xFFFFFFFFFFFFFFFFFFFFFFFFFFFFFFFFFFFFFFFF AND DUP2 MSTORE PUSH1 0x20 ADD SWAP1 DUP2 MSTORE PUSH1 0x20 ADD PUSH1 0x0 KECCAK256 DUP2 SWAP1 SSTORE POP POP DUP1 DUP1 PUSH2 0x31B SWAP1 PUSH2 0x7B1 JUMP JUMPDEST SWAP2 POP POP PUSH2 0x27B JUMP JUMPDEST POP PUSH1 0x0 PUSH8 0xFFFFFFFFFFFFFFFF DUP2 GT ISZERO PUSH2 0x33F JUMPI PUSH2 0x33E PUSH2 0x858 JUMP JUMPDEST JUMPDEST PUSH1 0x40 MLOAD SWAP1 DUP1 DUP3 MSTORE DUP1 PUSH1 0x20 MUL PUSH1 0x20 ADD DUP3 ADD PUSH1 0x40 MSTORE DUP1 ISZERO PUSH2 0x36D JUMPI DUP2 PUSH1 0x20 ADD PUSH1 0x20 DUP3 MUL DUP1 CALLDATASIZE DUP4 CALLDATACOPY DUP1 DUP3 ADD SWAP2 POP POP SWAP1 POP JUMPDEST POP PUSH1 0x1 SWAP1 DUP1 MLOAD SWAP1 PUSH1 0x20 ADD SWAP1 PUSH2 0x383 SWAP3 SWAP2 SWAP1 PUSH2 0x50A JUMP JUMPDEST POP JUMP JUMPDEST PUSH1 0x0 PUSH1 0x20 MSTORE DUP1 PUSH1 0x0 MSTORE PUSH1 0x40 PUSH1 0x0 KECCAK256 PUSH1 0x0 SWAP2 POP SWAP1 POP SLOAD DUP2 JUMP JUMPDEST PUSH1 0x2 PUSH1 0x0 SWAP1 SLOAD SWAP1 PUSH2 0x100 EXP SWAP1 DIV PUSH20 0xFFFFFFFFFFFFFFFFFFFFFFFFFFFFFFFFFFFFFFFF AND DUP2 JUMP JUMPDEST PUSH1 0x0 PUSH4 0x1DCD6500 SWAP1 POP DUP1 CALLVALUE LT ISZERO PUSH2 0x410 JUMPI PUSH1 0x40 MLOAD PUSH32 0x8C379A000000000000000000000000000000000000000000000000000000000 DUP2 MSTORE PUSH1 0x4 ADD PUSH2 0x407 SWAP1 PUSH2 0x6D3 JUMP JUMPDEST PUSH1 0x40 MLOAD DUP1 SWAP2 SUB SWAP1 REVERT JUMPDEST CALLVALUE PUSH1 0x0 DUP1 CALLER PUSH20 0xFFFFFFFFFFFFFFFFFFFFFFFFFFFFFFFFFFFFFFFF AND PUSH20 0xFFFFFFFFFFFFFFFFFFFFFFFFFFFFFFFFFFFFFFFF AND DUP2 MSTORE PUSH1 0x20 ADD SWAP1 DUP2 MSTORE PUSH1 0x20 ADD PUSH1 0x0 KECCAK256 PUSH1 0x0 DUP3 DUP3 SLOAD PUSH2 0x45E SWAP2 SWAP1 PUSH2 0x71F JUMP JUMPDEST SWAP3 POP POP DUP2 SWAP1 SSTORE POP PUSH1 0x1 CALLER SWAP1 DUP1 PUSH1 0x1 DUP2 SLOAD ADD DUP1 DUP3 SSTORE DUP1 SWAP2 POP POP PUSH1 0x1 SWAP1 SUB SWAP1 PUSH1 0x0 MSTORE PUSH1 0x20 PUSH1 0x0 KECCAK256 ADD PUSH1 0x0 SWAP1 SWAP2 SWAP1 SWAP2 SWAP1 SWAP2 PUSH2 0x100 EXP DUP2 SLOAD DUP2 PUSH20 0xFFFFFFFFFFFFFFFFFFFFFFFFFFFFFFFFFFFFFFFF MUL NOT AND SWAP1 DUP4 PUSH20 0xFFFFFFFFFFFFFFFFFFFFFFFFFFFFFFFFFFFFFFFF AND MUL OR SWAP1 SSTORE POP POP JUMP JUMPDEST PUSH1 0x1 DUP2 DUP2 SLOAD DUP2 LT PUSH2 0x4DB JUMPI PUSH1 0x0 DUP1 REVERT JUMPDEST SWAP1 PUSH1 0x0 MSTORE PUSH1 0x20 PUSH1 0x0 KECCAK256 ADD PUSH1 0x0 SWAP2 POP SLOAD SWAP1 PUSH2 0x100 EXP SWAP1 DIV PUSH20 0xFFFFFFFFFFFFFFFFFFFFFFFFFFFFFFFFFFFFFFFF AND DUP2 JUMP JUMPDEST DUP3 DUP1 SLOAD DUP3 DUP3 SSTORE SWAP1 PUSH1 0x0 MSTORE PUSH1 0x20 PUSH1 0x0 KECCAK256 SWAP1 DUP2 ADD SWAP3 DUP3 ISZERO PUSH2 0x583 JUMPI SWAP2 PUSH1 0x20 MUL DUP3 ADD JUMPDEST DUP3 DUP2 GT ISZERO PUSH2 0x582 JUMPI DUP3 MLOAD DUP3 PUSH1 0x0 PUSH2 0x100 EXP DUP2 SLOAD DUP2 PUSH20 0xFFFFFFFFFFFFFFFFFFFFFFFFFFFFFFFFFFFFFFFF MUL NOT AND SWAP1 DUP4 PUSH20 0xFFFFFFFFFFFFFFFFFFFFFFFFFFFFFFFFFFFFFFFF AND MUL OR SWAP1 SSTORE POP SWAP2 PUSH1 0x20 ADD SWAP2 SWAP1 PUSH1 0x1 ADD SWAP1 PUSH2 0x52A JUMP JUMPDEST JUMPDEST POP SWAP1 POP PUSH2 0x590 SWAP2 SWAP1 PUSH2 0x594 JUMP JUMPDEST POP SWAP1 JUMP JUMPDEST JUMPDEST DUP1 DUP3 GT ISZERO PUSH2 0x5AD JUMPI PUSH1 0x0 DUP2 PUSH1 0x0 SWAP1 SSTORE POP PUSH1 0x1 ADD PUSH2 0x595 JUMP JUMPDEST POP SWAP1 JUMP JUMPDEST PUSH1 0x0 DUP2 CALLDATALOAD SWAP1 POP PUSH2 0x5C0 DUP2 PUSH2 0x8B5 JUMP JUMPDEST SWAP3 SWAP2 POP POP JUMP JUMPDEST PUSH1 0x0 DUP2 CALLDATALOAD SWAP1 POP PUSH2 0x5D5 DUP2 PUSH2 0x8CC JUMP JUMPDEST SWAP3 SWAP2 POP POP JUMP JUMPDEST PUSH1 0x0 DUP2 MLOAD SWAP1 POP PUSH2 0x5EA DUP2 PUSH2 0x8CC JUMP JUMPDEST SWAP3 SWAP2 POP POP JUMP JUMPDEST PUSH1 0x0 PUSH1 0x20 DUP3 DUP5 SUB SLT ISZERO PUSH2 0x606 JUMPI PUSH2 0x605 PUSH2 0x887 JUMP JUMPDEST JUMPDEST PUSH1 0x0 PUSH2 0x614 DUP5 DUP3 DUP6 ADD PUSH2 0x5B1 JUMP JUMPDEST SWAP2 POP POP SWAP3 SWAP2 POP POP JUMP JUMPDEST PUSH1 0x0 PUSH1 0x20 DUP3 DUP5 SUB SLT ISZERO PUSH2 0x633 JUMPI PUSH2 0x632 PUSH2 0x887 JUMP JUMPDEST JUMPDEST PUSH1 0x0 PUSH2 0x641 DUP5 DUP3 DUP6 ADD PUSH2 0x5C6 JUMP JUMPDEST SWAP2 POP POP SWAP3 SWAP2 POP POP JUMP JUMPDEST PUSH1 0x0 PUSH1 0x20 DUP3 DUP5 SUB SLT ISZERO PUSH2 0x660 JUMPI PUSH2 0x65F PUSH2 0x887 JUMP JUMPDEST JUMPDEST PUSH1 0x0 PUSH2 0x66E DUP5 DUP3 DUP6 ADD PUSH2 0x5DB JUMP JUMPDEST SWAP2 POP POP SWAP3 SWAP2 POP POP JUMP JUMPDEST PUSH2 0x680 DUP2 PUSH2 0x775 JUMP JUMPDEST DUP3 MSTORE POP POP JUMP JUMPDEST PUSH1 0x0 PUSH2 0x693 PUSH1 0x1B DUP4 PUSH2 0x70E JUMP JUMPDEST SWAP2 POP PUSH2 0x69E DUP3 PUSH2 0x88C JUMP JUMPDEST PUSH1 0x20 DUP3 ADD SWAP1 POP SWAP2 SWAP1 POP JUMP JUMPDEST PUSH2 0x6B2 DUP2 PUSH2 0x7A7 JUMP JUMPDEST DUP3 MSTORE POP POP JUMP JUMPDEST PUSH1 0x0 PUSH1 0x20 DUP3 ADD SWAP1 POP PUSH2 0x6CD PUSH1 0x0 DUP4 ADD DUP5 PUSH2 0x677 JUMP JUMPDEST SWAP3 SWAP2 POP POP JUMP JUMPDEST PUSH1 0x0 PUSH1 0x20 DUP3 ADD SWAP1 POP DUP2 DUP2 SUB PUSH1 0x0 DUP4 ADD MSTORE PUSH2 0x6EC DUP2 PUSH2 0x686 JUMP JUMPDEST SWAP1 POP SWAP2 SWAP1 POP JUMP JUMPDEST PUSH1 0x0 PUSH1 0x20 DUP3 ADD SWAP1 POP PUSH2 0x708 PUSH1 0x0 DUP4 ADD DUP5 PUSH2 0x6A9 JUMP JUMPDEST SWAP3 SWAP2 POP POP JUMP JUMPDEST PUSH1 0x0 DUP3 DUP3 MSTORE PUSH1 0x20 DUP3 ADD SWAP1 POP SWAP3 SWAP2 POP POP JUMP JUMPDEST PUSH1 0x0 PUSH2 0x72A DUP3 PUSH2 0x7A7 JUMP JUMPDEST SWAP2 POP PUSH2 0x735 DUP4 PUSH2 0x7A7 JUMP JUMPDEST SWAP3 POP DUP3 PUSH32 0xFFFFFFFFFFFFFFFFFFFFFFFFFFFFFFFFFFFFFFFFFFFFFFFFFFFFFFFFFFFFFFFF SUB DUP3 GT ISZERO PUSH2 0x76A JUMPI PUSH2 0x769 PUSH2 0x7FA JUMP JUMPDEST JUMPDEST DUP3 DUP3 ADD SWAP1 POP SWAP3 SWAP2 POP POP JUMP JUMPDEST PUSH1 0x0 PUSH2 0x780 DUP3 PUSH2 0x787 JUMP JUMPDEST SWAP1 POP SWAP2 SWAP1 POP JUMP JUMPDEST PUSH1 0x0 PUSH20 0xFFFFFFFFFFFFFFFFFFFFFFFFFFFFFFFFFFFFFFFF DUP3 AND SWAP1 POP SWAP2 SWAP1 POP JUMP JUMPDEST PUSH1 0x0 DUP2 SWAP1 POP SWAP2 SWAP1 POP JUMP JUMPDEST PUSH1 0x0 PUSH2 0x7BC DUP3 PUSH2 0x7A7 JUMP JUMPDEST SWAP2 POP PUSH32 0xFFFFFFFFFFFFFFFFFFFFFFFFFFFFFFFFFFFFFFFFFFFFFFFFFFFFFFFFFFFFFFFF DUP3 EQ ISZERO PUSH2 0x7EF JUMPI PUSH2 0x7EE PUSH2 0x7FA JUMP JUMPDEST JUMPDEST PUSH1 0x1 DUP3 ADD SWAP1 POP SWAP2 SWAP1 POP JUMP JUMPDEST PUSH32 0x4E487B7100000000000000000000000000000000000000000000000000000000 PUSH1 0x0 MSTORE PUSH1 0x11 PUSH1 0x4 MSTORE PUSH1 0x24 PUSH1 0x0 REVERT JUMPDEST PUSH32 0x4E487B7100000000000000000000000000000000000000000000000000000000 PUSH1 0x0 MSTORE PUSH1 0x32 PUSH1 0x4 MSTORE PUSH1 0x24 PUSH1 0x0 REVERT JUMPDEST PUSH32 0x4E487B7100000000000000000000000000000000000000000000000000000000 PUSH1 0x0 MSTORE PUSH1 0x41 PUSH1 0x4 MSTORE PUSH1 0x24 PUSH1 0x0 REVERT JUMPDEST PUSH1 0x0 DUP1 REVERT JUMPDEST PUSH32 0x596F75206E65656420746F207370656E64206D6F726520455448210000000000 PUSH1 0x0 DUP3 ADD MSTORE POP JUMP JUMPDEST PUSH2 0x8BE DUP2 PUSH2 0x775 JUMP JUMPDEST DUP2 EQ PUSH2 0x8C9 JUMPI PUSH1 0x0 DUP1 REVERT JUMPDEST POP JUMP JUMPDEST PUSH2 0x8D5 DUP2 PUSH2 0x7A7 JUMP JUMPDEST DUP2 EQ PUSH2 0x8E0 JUMPI PUSH1 0x0 DUP1 REVERT JUMPDEST POP JUMP INVALID LOG2 PUSH5 0x6970667358 0x22 SLT KECCAK256 0x26 SHR 0xF7 0xDE SIGNEXTEND 0x4F GASLIMIT EXTCODEHASH CODECOPY SWAP15 GASPRICE MULMOD DUP9 EXP 0xBE PUSH13 0xC34AE6F466953504DA79C9A407 PUSH8 0xBF2964736F6C6343 STOP ADDMOD SMOD STOP CALLER "
				},
				"gasEstimates": {
					"creation": {
						"codeDepositCost": "465800",
						"executionCost": "24765",
						"totalCost": "490565"
					},
					"external": {
						"addressToAmountFunded(address)": "2836",
						"fund()": "infinite",
						"funders(uint256)": "5044",
						"getVersion()": "infinite",
						"owner()": "2558",
						"withdraw()": "infinite"
					}
				},
				"methodIdentifiers": {
					"addressToAmountFunded(address)": "3e47d6f3",
					"fund()": "b60d4288",
					"funders(uint256)": "dc0d3dff",
					"getVersion()": "0d8e6e2c",
					"owner()": "8da5cb5b",
					"withdraw()": "3ccfd60b"
				}
			},
			"storageLayout": {
				"storage": [
					{
						"astId": 52,
						"contract": "contracts/FundMe.sol:FundMe",
						"label": "addressToAmountFunded",
						"offset": 0,
						"slot": "0",
						"type": "t_mapping(t_address,t_uint256)"
					},
					{
						"astId": 55,
						"contract": "contracts/FundMe.sol:FundMe",
						"label": "funders",
						"offset": 0,
						"slot": "1",
						"type": "t_array(t_address)dyn_storage"
					},
					{
						"astId": 57,
						"contract": "contracts/FundMe.sol:FundMe",
						"label": "owner",
						"offset": 0,
						"slot": "2",
						"type": "t_address"
					}
				],
				"types": {
					"t_address": {
						"encoding": "inplace",
						"label": "address",
						"numberOfBytes": "20"
					},
					"t_array(t_address)dyn_storage": {
						"base": "t_address",
						"encoding": "dynamic_array",
						"label": "address[]",
						"numberOfBytes": "32"
					},
					"t_mapping(t_address,t_uint256)": {
						"encoding": "mapping",
						"key": "t_address",
						"label": "mapping(address => uint256)",
						"numberOfBytes": "32",
						"value": "t_uint256"
					},
					"t_uint256": {
						"encoding": "inplace",
						"label": "uint256",
						"numberOfBytes": "32"
					}
				}
			},
			"userdoc": {
				"kind": "user",
				"methods": {},
				"version": 1
			}
		}
	}
}